{
  "_format": "hh-sol-artifact-1",
  "contractName": "SimpleBank",
  "sourceName": "contracts/SimpleBank.sol",
  "abi": [
    {
      "inputs": [
        {
          "internalType": "uint256",
          "name": "_fee",
          "type": "uint256"
        },
        {
          "internalType": "address",
          "name": "_treasury",
          "type": "address"
        }
      ],
      "stateMutability": "nonpayable",
      "type": "constructor"
    },
    {
      "anonymous": false,
      "inputs": [
        {
          "indexed": true,
          "internalType": "address",
          "name": "user",
          "type": "address"
        },
        {
          "indexed": false,
          "internalType": "uint256",
          "name": "amount",
          "type": "uint256"
        }
      ],
      "name": "Deposit",
      "type": "event"
    },
    {
      "anonymous": false,
      "inputs": [
        {
          "indexed": true,
          "internalType": "address",
          "name": "owner",
          "type": "address"
        },
        {
          "indexed": false,
          "internalType": "uint256",
          "name": "amount",
          "type": "uint256"
        }
      ],
      "name": "TreasuryWithdrawal",
      "type": "event"
    },
    {
      "anonymous": false,
      "inputs": [
        {
          "indexed": true,
          "internalType": "address",
          "name": "user",
          "type": "address"
        },
        {
          "indexed": false,
          "internalType": "string",
          "name": "firstName",
          "type": "string"
        },
        {
          "indexed": false,
          "internalType": "string",
          "name": "lastName",
          "type": "string"
        }
      ],
      "name": "UserRegistered",
      "type": "event"
    },
    {
      "anonymous": false,
      "inputs": [
        {
          "indexed": true,
          "internalType": "address",
          "name": "user",
          "type": "address"
        },
        {
          "indexed": false,
          "internalType": "uint256",
          "name": "amount",
          "type": "uint256"
        },
        {
          "indexed": false,
          "internalType": "uint256",
          "name": "fee",
          "type": "uint256"
        }
      ],
      "name": "Withdrawal",
      "type": "event"
    },
    {
      "inputs": [],
      "name": "deposit",
      "outputs": [],
      "stateMutability": "payable",
      "type": "function"
    },
    {
      "inputs": [],
      "name": "fee",
      "outputs": [
        {
          "internalType": "uint256",
          "name": "",
          "type": "uint256"
        }
      ],
      "stateMutability": "view",
      "type": "function"
    },
    {
      "inputs": [],
      "name": "getBalance",
      "outputs": [
        {
          "internalType": "uint256",
          "name": "",
          "type": "uint256"
        }
      ],
      "stateMutability": "view",
      "type": "function"
    },
    {
      "inputs": [],
      "name": "owner",
      "outputs": [
        {
          "internalType": "address",
          "name": "",
          "type": "address"
        }
      ],
      "stateMutability": "view",
      "type": "function"
    },
    {
      "inputs": [
        {
          "internalType": "string",
          "name": "_firstName",
          "type": "string"
        },
        {
          "internalType": "string",
          "name": "_lastName",
          "type": "string"
        }
      ],
      "name": "register",
      "outputs": [],
      "stateMutability": "nonpayable",
      "type": "function"
    },
    {
      "inputs": [],
      "name": "treasury",
      "outputs": [
        {
          "internalType": "address",
          "name": "",
          "type": "address"
        }
      ],
      "stateMutability": "view",
      "type": "function"
    },
    {
      "inputs": [],
      "name": "treasuryBalance",
      "outputs": [
        {
          "internalType": "uint256",
          "name": "",
          "type": "uint256"
        }
      ],
      "stateMutability": "view",
      "type": "function"
    },
    {
      "inputs": [
        {
          "internalType": "address",
          "name": "",
          "type": "address"
        }
      ],
      "name": "users",
      "outputs": [
        {
          "internalType": "string",
          "name": "firstName",
          "type": "string"
        },
        {
          "internalType": "string",
          "name": "lastName",
          "type": "string"
        },
        {
          "internalType": "uint256",
          "name": "balance",
          "type": "uint256"
        },
        {
          "internalType": "bool",
          "name": "isRegistered",
          "type": "bool"
        }
      ],
      "stateMutability": "view",
      "type": "function"
    },
    {
      "inputs": [
        {
          "internalType": "uint256",
          "name": "_amount",
          "type": "uint256"
        }
      ],
      "name": "withdraw",
      "outputs": [],
      "stateMutability": "nonpayable",
      "type": "function"
    },
    {
      "inputs": [
        {
          "internalType": "uint256",
          "name": "_amount",
          "type": "uint256"
        }
      ],
      "name": "withdrawTreasury",
      "outputs": [],
      "stateMutability": "nonpayable",
      "type": "function"
    }
  ],
  "bytecode": "0x608060405234801561001057600080fd5b50604051611ee2380380611ee283398181016040528101906100329190610217565b600073ffffffffffffffffffffffffffffffffffffffff168173ffffffffffffffffffffffffffffffffffffffff16036100a1576040517f08c379a0000000000000000000000000000000000000000000000000000000008152600401610098906102da565b60405180910390fd5b6127108211156100e6576040517f08c379a00000000000000000000000000000000000000000000000000000000081526004016100dd9061036c565b60405180910390fd5b33600160006101000a81548173ffffffffffffffffffffffffffffffffffffffff021916908373ffffffffffffffffffffffffffffffffffffffff1602179055508160038190555080600260006101000a81548173ffffffffffffffffffffffffffffffffffffffff021916908373ffffffffffffffffffffffffffffffffffffffff1602179055506000600481905550505061038c565b600080fd5b6000819050919050565b61019681610183565b81146101a157600080fd5b50565b6000815190506101b38161018d565b92915050565b600073ffffffffffffffffffffffffffffffffffffffff82169050919050565b60006101e4826101b9565b9050919050565b6101f4816101d9565b81146101ff57600080fd5b50565b600081519050610211816101eb565b92915050565b6000806040838503121561022e5761022d61017e565b5b600061023c858286016101a4565b925050602061024d85828601610202565b9150509250929050565b600082825260208201905092915050565b7f4c6120646972656363696f6e206465206c61207465736f7265726961206e6f2060008201527f707565646520736572206365726f000000000000000000000000000000000000602082015250565b60006102c4602e83610257565b91506102cf82610268565b604082019050919050565b600060208201905081810360008301526102f3816102b7565b9050919050565b7f456c20666565206e6f20707565646520736572206d61796f7220616c2031303060008201527f2500000000000000000000000000000000000000000000000000000000000000602082015250565b6000610356602183610257565b9150610361826102fa565b604082019050919050565b6000602082019050818103600083015261038581610349565b9050919050565b611b478061039b6000396000f3fe6080604052600436106100915760003560e01c806361d027b31161005957806361d027b3146101675780638da5cb5b14610192578063a87430ba146101bd578063d0e30db0146101fd578063ddca3f431461020757610091565b806311f1fc991461009657806312065fe0146100bf5780632e1a7d4d146100ea578063313dab20146101135780633ffbd47f1461013e575b600080fd5b3480156100a257600080fd5b506100bd60048036038101906100b89190610e25565b610232565b005b3480156100cb57600080fd5b506100d4610440565b6040516100e19190610e61565b60405180910390f35b3480156100f657600080fd5b50610111600480360381019061010c9190610e25565b610517565b005b34801561011f57600080fd5b5061012861080e565b6040516101359190610e61565b60405180910390f35b34801561014a57600080fd5b5061016560048036038101906101609190610ee1565b610814565b005b34801561017357600080fd5b5061017c610acd565b6040516101899190610fa3565b60405180910390f35b34801561019e57600080fd5b506101a7610af3565b6040516101b49190610fa3565b60405180910390f35b3480156101c957600080fd5b506101e460048036038101906101df9190610fea565b610b19565b6040516101f494939291906110c2565b60405180910390f35b610205610c66565b005b34801561021357600080fd5b5061021c610ddf565b6040516102299190610e61565b60405180910390f35b600160009054906101000a900473ffffffffffffffffffffffffffffffffffffffff1673ffffffffffffffffffffffffffffffffffffffff163373ffffffffffffffffffffffffffffffffffffffff16146102c2576040517f08c379a00000000000000000000000000000000000000000000000000000000081526004016102b990611187565b60405180910390fd5b600454811115610307576040517f08c379a00000000000000000000000000000000000000000000000000000000081526004016102fe90611219565b60405180910390fd5b80600460008282546103199190611268565b925050819055506000600260009054906101000a900473ffffffffffffffffffffffffffffffffffffffff1673ffffffffffffffffffffffffffffffffffffffff1682604051610368906112cd565b60006040518083038185875af1925050503d80600081146103a5576040519150601f19603f3d011682016040523d82523d6000602084013e6103aa565b606091505b50509050806103ee576040517f08c379a00000000000000000000000000000000000000000000000000000000081526004016103e590611354565b60405180910390fd5b3373ffffffffffffffffffffffffffffffffffffffff167f233c84dc0c19fbf51f9fa92214ffd8a59f512e0098bff5827455d02e401221c0836040516104349190610e61565b60405180910390a25050565b60008060003373ffffffffffffffffffffffffffffffffffffffff1673ffffffffffffffffffffffffffffffffffffffff16815260200190815260200160002060030160009054906101000a900460ff166104d0576040517f08c379a00000000000000000000000000000000000000000000000000000000081526004016104c7906113c0565b60405180910390fd5b6000803373ffffffffffffffffffffffffffffffffffffffff1673ffffffffffffffffffffffffffffffffffffffff16815260200190815260200160002060020154905090565b6000803373ffffffffffffffffffffffffffffffffffffffff1673ffffffffffffffffffffffffffffffffffffffff16815260200190815260200160002060030160009054906101000a900460ff166105a5576040517f08c379a000000000000000000000000000000000000000000000000000000000815260040161059c906113c0565b60405180910390fd5b600081116105e8576040517f08c379a00000000000000000000000000000000000000000000000000000000081526004016105df90611452565b60405180910390fd5b806000803373ffffffffffffffffffffffffffffffffffffffff1673ffffffffffffffffffffffffffffffffffffffff16815260200190815260200160002060020154101561066c576040517f08c379a0000000000000000000000000000000000000000000000000000000008152600401610663906114be565b60405180910390fd5b60006127106003548361067f91906114de565b610689919061154f565b9050600081836106999190611268565b9050826000803373ffffffffffffffffffffffffffffffffffffffff1673ffffffffffffffffffffffffffffffffffffffff16815260200190815260200160002060020160008282546106ec9190611268565b9250508190555081600460008282546107059190611580565b9250508190555060003373ffffffffffffffffffffffffffffffffffffffff1682604051610732906112cd565b60006040518083038185875af1925050503d806000811461076f576040519150601f19603f3d011682016040523d82523d6000602084013e610774565b606091505b50509050806107b8576040517f08c379a00000000000000000000000000000000000000000000000000000000081526004016107af90611600565b60405180910390fd5b3373ffffffffffffffffffffffffffffffffffffffff167fdf273cb619d95419a9cd0ec88123a0538c85064229baa6363788f743fff90deb8385604051610800929190611620565b60405180910390a250505050565b60045481565b6000848490500361085a576040517f08c379a000000000000000000000000000000000000000000000000000000000815260040161085190611695565b60405180910390fd5b600082829050036108a0576040517f08c379a000000000000000000000000000000000000000000000000000000000815260040161089790611701565b60405180910390fd5b6000803373ffffffffffffffffffffffffffffffffffffffff1673ffffffffffffffffffffffffffffffffffffffff16815260200190815260200160002060030160009054906101000a900460ff161561092f576040517f08c379a00000000000000000000000000000000000000000000000000000000081526004016109269061176d565b60405180910390fd5b604051806080016040528085858080601f016020809104026020016040519081016040528093929190818152602001838380828437600081840152601f19601f82011690508083019250505050505050815260200183838080601f016020809104026020016040519081016040528093929190818152602001838380828437600081840152601f19601f82011690508083019250505050505050815260200160008152602001600115158152506000803373ffffffffffffffffffffffffffffffffffffffff1673ffffffffffffffffffffffffffffffffffffffff1681526020019081526020016000206000820151816000019081610a2f91906119c8565b506020820151816001019081610a4591906119c8565b506040820151816002015560608201518160030160006101000a81548160ff0219169083151502179055509050503373ffffffffffffffffffffffffffffffffffffffff167f92822564bab8864c3a47b34e8d23fbce5c46234eb5da261f94087b995ac0f33b85858585604051610abf9493929190611ad6565b60405180910390a250505050565b600260009054906101000a900473ffffffffffffffffffffffffffffffffffffffff1681565b600160009054906101000a900473ffffffffffffffffffffffffffffffffffffffff1681565b6000602052806000526040600020600091509050806000018054610b3c906117eb565b80601f0160208091040260200160405190810160405280929190818152602001828054610b68906117eb565b8015610bb55780601f10610b8a57610100808354040283529160200191610bb5565b820191906000526020600020905b815481529060010190602001808311610b9857829003601f168201915b505050505090806001018054610bca906117eb565b80601f0160208091040260200160405190810160405280929190818152602001828054610bf6906117eb565b8015610c435780601f10610c1857610100808354040283529160200191610c43565b820191906000526020600020905b815481529060010190602001808311610c2657829003601f168201915b5050505050908060020154908060030160009054906101000a900460ff16905084565b6000803373ffffffffffffffffffffffffffffffffffffffff1673ffffffffffffffffffffffffffffffffffffffff16815260200190815260200160002060030160009054906101000a900460ff16610cf4576040517f08c379a0000000000000000000000000000000000000000000000000000000008152600401610ceb906113c0565b60405180910390fd5b60003411610d37576040517f08c379a0000000000000000000000000000000000000000000000000000000008152600401610d2e90611452565b60405180910390fd5b346000803373ffffffffffffffffffffffffffffffffffffffff1673ffffffffffffffffffffffffffffffffffffffff1681526020019081526020016000206002016000828254610d889190611580565b925050819055503373ffffffffffffffffffffffffffffffffffffffff167fe1fffcc4923d04b559f4d29a8bfc6cda04eb5b0d3c460751c2402c5c5cc9109c34604051610dd59190610e61565b60405180910390a2565b60035481565b600080fd5b600080fd5b6000819050919050565b610e0281610def565b8114610e0d57600080fd5b50565b600081359050610e1f81610df9565b92915050565b600060208284031215610e3b57610e3a610de5565b5b6000610e4984828501610e10565b91505092915050565b610e5b81610def565b82525050565b6000602082019050610e766000830184610e52565b92915050565b600080fd5b600080fd5b600080fd5b60008083601f840112610ea157610ea0610e7c565b5b8235905067ffffffffffffffff811115610ebe57610ebd610e81565b5b602083019150836001820283011115610eda57610ed9610e86565b5b9250929050565b60008060008060408587031215610efb57610efa610de5565b5b600085013567ffffffffffffffff811115610f1957610f18610dea565b5b610f2587828801610e8b565b9450945050602085013567ffffffffffffffff811115610f4857610f47610dea565b5b610f5487828801610e8b565b925092505092959194509250565b600073ffffffffffffffffffffffffffffffffffffffff82169050919050565b6000610f8d82610f62565b9050919050565b610f9d81610f82565b82525050565b6000602082019050610fb86000830184610f94565b92915050565b610fc781610f82565b8114610fd257600080fd5b50565b600081359050610fe481610fbe565b92915050565b60006020828403121561100057610fff610de5565b5b600061100e84828501610fd5565b91505092915050565b600081519050919050565b600082825260208201905092915050565b60005b83811015611051578082015181840152602081019050611036565b60008484015250505050565b6000601f19601f8301169050919050565b600061107982611017565b6110838185611022565b9350611093818560208601611033565b61109c8161105d565b840191505092915050565b60008115159050919050565b6110bc816110a7565b82525050565b600060808201905081810360008301526110dc818761106e565b905081810360208301526110f0818661106e565b90506110ff6040830185610e52565b61110c60608301846110b3565b95945050505050565b7f4e6f206175746f72697a61646f3a206e6f20657320656c2070726f706965746160008201527f72696f0000000000000000000000000000000000000000000000000000000000602082015250565b6000611171602383611022565b915061117c82611115565b604082019050919050565b600060208201905081810360008301526111a081611164565b9050919050565b7f466f6e646f7320696e737566696369656e74657320656e206c61207465736f7260008201527f6572696100000000000000000000000000000000000000000000000000000000602082015250565b6000611203602483611022565b915061120e826111a7565b604082019050919050565b60006020820190508181036000830152611232816111f6565b9050919050565b7f4e487b7100000000000000000000000000000000000000000000000000000000600052601160045260246000fd5b600061127382610def565b915061127e83610def565b925082820390508181111561129657611295611239565b5b92915050565b600081905092915050565b50565b60006112b760008361129c565b91506112c2826112a7565b600082019050919050565b60006112d8826112aa565b9150819050919050565b7f46616c6c6f20656e206c61207472616e73666572656e6369612064652045544860008201527f206465736465206c61207465736f726572696100000000000000000000000000602082015250565b600061133e603383611022565b9150611349826112e2565b604082019050919050565b6000602082019050818103600083015261136d81611331565b9050919050565b7f5573756172696f206e6f207265676973747261646f0000000000000000000000600082015250565b60006113aa601583611022565b91506113b582611374565b602082019050919050565b600060208201905081810360008301526113d98161139d565b9050919050565b7f4c612063616e7469646164206465626520736572206d61796f7220612063657260008201527f6f00000000000000000000000000000000000000000000000000000000000000602082015250565b600061143c602183611022565b9150611447826113e0565b604082019050919050565b6000602082019050818103600083015261146b8161142f565b9050919050565b7f53616c646f20696e737566696369656e74650000000000000000000000000000600082015250565b60006114a8601283611022565b91506114b382611472565b602082019050919050565b600060208201905081810360008301526114d78161149b565b9050919050565b60006114e982610def565b91506114f483610def565b925082820261150281610def565b9150828204841483151761151957611518611239565b5b5092915050565b7f4e487b7100000000000000000000000000000000000000000000000000000000600052601260045260246000fd5b600061155a82610def565b915061156583610def565b92508261157557611574611520565b5b828204905092915050565b600061158b82610def565b915061159683610def565b92508282019050808211156115ae576115ad611239565b5b92915050565b7f46616c6c6f20656e206c61207472616e73666572656e63696120646520455448600082015250565b60006115ea602083611022565b91506115f5826115b4565b602082019050919050565b60006020820190508181036000830152611619816115dd565b9050919050565b60006040820190506116356000830185610e52565b6116426020830184610e52565b9392505050565b7f456c206e6f6d627265206e6f20707565646520657374617220766163696f0000600082015250565b600061167f601e83611022565b915061168a82611649565b602082019050919050565b600060208201905081810360008301526116ae81611672565b9050919050565b7f456c206170656c6c69646f206e6f20707565646520657374617220766163696f600082015250565b60006116eb602083611022565b91506116f6826116b5565b602082019050919050565b6000602082019050818103600083015261171a816116de565b9050919050565b7f5573756172696f207961207265676973747261646f0000000000000000000000600082015250565b6000611757601583611022565b915061176282611721565b602082019050919050565b600060208201905081810360008301526117868161174a565b9050919050565b7f4e487b7100000000000000000000000000000000000000000000000000000000600052604160045260246000fd5b7f4e487b7100000000000000000000000000000000000000000000000000000000600052602260045260246000fd5b6000600282049050600182168061180357607f821691505b602082108103611816576118156117bc565b5b50919050565b60008190508160005260206000209050919050565b60006020601f8301049050919050565b600082821b905092915050565b60006008830261187e7fffffffffffffffffffffffffffffffffffffffffffffffffffffffffffffffff82611841565b6118888683611841565b95508019841693508086168417925050509392505050565b6000819050919050565b60006118c56118c06118bb84610def565b6118a0565b610def565b9050919050565b6000819050919050565b6118df836118aa565b6118f36118eb826118cc565b84845461184e565b825550505050565b600090565b6119086118fb565b6119138184846118d6565b505050565b5b818110156119375761192c600082611900565b600181019050611919565b5050565b601f82111561197c5761194d8161181c565b61195684611831565b81016020851015611965578190505b61197961197185611831565b830182611918565b50505b505050565b600082821c905092915050565b600061199f60001984600802611981565b1980831691505092915050565b60006119b8838361198e565b9150826002028217905092915050565b6119d182611017565b67ffffffffffffffff8111156119ea576119e961178d565b5b6119f482546117eb565b6119ff82828561193b565b600060209050601f831160018114611a325760008415611a20578287015190505b611a2a85826119ac565b865550611a92565b601f198416611a408661181c565b60005b82811015611a6857848901518255600182019150602085019450602081019050611a43565b86831015611a855784890151611a81601f89168261198e565b8355505b6001600288020188555050505b505050505050565b82818337600083830152505050565b6000611ab58385611022565b9350611ac2838584611a9a565b611acb8361105d565b840190509392505050565b60006040820190508181036000830152611af1818688611aa9565b90508181036020830152611b06818486611aa9565b90509594505050505056fea2646970667358221220e7415d38afbd2ddc15ef78baf4a7b1c76741fd53646ec7e2075662ec8646efd664736f6c634300081b0033",
  "linkReferences": {},
  "deployedLinkReferences": {}
}